:020000040000FA
:0400000007EF00F016
:10000800078209ED00F090EF00F00600F2A20FEF72
:1000180000F011EF00F034EF00F0F2928BB417EF1C
:1000280000F01AEF00F0010E1BEF00F0000EFF0ABF
:10003800046E044604468B500418FB0B04188B6EA0
:10004800640E03602AEF00F02CEF00F05DEF00F083
:10005800640E0126000E02220A0E03265DEF00F050
:10006800F0A039EF00F03BEF00F05DEF00F0F0900A
:100078008BBC41EF00F044EF00F0010E45EF00F0BB
:10008800000EFF0A046E043A044604468B50041816
:10009800BF0B04188B6E0350D8B455EF00F057EF20
:1000A80000F05DEF00F0640E015E000E025A0A0EC9
:1000B800035E07921100030E936EF288F086F19E9C
:1000C800F19CCB68000EBB6ECF0EBA16060ECA6E38
:1000D800000E946EBA90BA92BA84BA86F28EF28CF6
:1000E800F292F09001C005F002C006F0D8900632F6
:1000F8000532D890063205320550BB6E01C005F0B6
:10010800030E0516053ABA500518CF0B0518BA6E36
:1001180076EF00F007EF00F0036A026A016A0790C1
:08012800079200015FEF00F0F7
:020000040020DA
:08000000FFFFFFFFFFFFFFFF00
:020000040030CA
:0E000000000C1E1EFF0181FF0FC00FE00F401D
:00000001FF
